{
  "contractName": "BitCrafty_Contract",
  "abi": [
    {
      "inputs": [
        {
          "internalType": "address",
          "name": "token",
          "type": "address"
        }
      ],
      "stateMutability": "nonpayable",
      "type": "constructor"
    },
    {
      "anonymous": false,
      "inputs": [
        {
          "indexed": true,
          "internalType": "uint256",
          "name": "handicraftId",
          "type": "uint256"
        },
        {
          "indexed": false,
          "internalType": "address",
          "name": "seller",
          "type": "address"
        },
        {
          "indexed": false,
          "internalType": "address",
          "name": "owner",
          "type": "address"
        },
        {
          "indexed": false,
          "internalType": "uint256",
          "name": "price",
          "type": "uint256"
        },
        {
          "indexed": false,
          "internalType": "bool",
          "name": "sold",
          "type": "bool"
        }
      ],
      "name": "HandicraftCreated",
      "type": "event"
    },
    {
      "anonymous": false,
      "inputs": [
        {
          "indexed": false,
          "internalType": "address",
          "name": "to",
          "type": "address"
        },
        {
          "indexed": false,
          "internalType": "uint256",
          "name": "handicraftId",
          "type": "uint256"
        }
      ],
      "name": "Mint",
      "type": "event"
    },
    {
      "anonymous": false,
      "inputs": [
        {
          "indexed": false,
          "internalType": "address",
          "name": "seller",
          "type": "address"
        },
        {
          "indexed": false,
          "internalType": "address",
          "name": "owner",
          "type": "address"
        },
        {
          "indexed": false,
          "internalType": "uint256",
          "name": "handicraftId",
          "type": "uint256"
        }
      ],
      "name": "Transfer",
      "type": "event"
    },
    {
      "inputs": [
        {
          "internalType": "address",
          "name": "",
          "type": "address"
        }
      ],
      "name": "isPresent",
      "outputs": [
        {
          "internalType": "bool",
          "name": "",
          "type": "bool"
        }
      ],
      "stateMutability": "view",
      "type": "function",
      "constant": true
    },
    {
      "inputs": [],
      "name": "uniqContract",
      "outputs": [
        {
          "internalType": "address",
          "name": "",
          "type": "address"
        }
      ],
      "stateMutability": "view",
      "type": "function",
      "constant": true
    },
    {
      "inputs": [],
      "name": "getTokens",
      "outputs": [],
      "stateMutability": "nonpayable",
      "type": "function"
    },
    {
      "inputs": [
        {
          "internalType": "string",
          "name": "tokenURI",
          "type": "string"
        },
        {
          "internalType": "uint256",
          "name": "price",
          "type": "uint256"
        }
      ],
      "name": "createHandicraftToken",
      "outputs": [
        {
          "internalType": "uint256",
          "name": "",
          "type": "uint256"
        }
      ],
      "stateMutability": "payable",
      "type": "function",
      "payable": true
    },
    {
      "inputs": [
        {
          "internalType": "uint256",
          "name": "handicraftId",
          "type": "uint256"
        }
      ],
      "name": "getTokenURI",
      "outputs": [
        {
          "internalType": "string",
          "name": "",
          "type": "string"
        }
      ],
      "stateMutability": "view",
      "type": "function",
      "constant": true
    },
    {
      "inputs": [
        {
          "internalType": "uint256",
          "name": "price",
          "type": "uint256"
        }
      ],
      "name": "getListingPrice",
      "outputs": [
        {
          "internalType": "uint256",
          "name": "",
          "type": "uint256"
        }
      ],
      "stateMutability": "pure",
      "type": "function",
      "constant": true
    },
    {
      "inputs": [
        {
          "internalType": "uint256",
          "name": "handicraftId",
          "type": "uint256"
        }
      ],
      "name": "createMarketSale",
      "outputs": [],
      "stateMutability": "payable",
      "type": "function",
      "payable": true
    },
    {
      "inputs": [
        {
          "internalType": "uint256",
          "name": "handicraftId",
          "type": "uint256"
        },
        {
          "internalType": "uint256",
          "name": "price",
          "type": "uint256"
        }
      ],
      "name": "resellHandicraft",
      "outputs": [],
      "stateMutability": "payable",
      "type": "function",
      "payable": true
    },
    {
      "inputs": [],
      "name": "fetchHandicrafts",
      "outputs": [
        {
          "components": [
            {
              "internalType": "uint256",
              "name": "handicraftId",
              "type": "uint256"
            },
            {
              "internalType": "address payable",
              "name": "seller",
              "type": "address"
            },
            {
              "internalType": "address payable",
              "name": "owner",
              "type": "address"
            },
            {
              "internalType": "uint256",
              "name": "price",
              "type": "uint256"
            },
            {
              "internalType": "bool",
              "name": "sold",
              "type": "bool"
            }
          ],
          "internalType": "struct BitCrafty_Contract.Handicraft[]",
          "name": "",
          "type": "tuple[]"
        }
      ],
      "stateMutability": "view",
      "type": "function",
      "constant": true
    },
    {
      "inputs": [],
      "name": "fetchMyHandicrafts",
      "outputs": [
        {
          "components": [
            {
              "internalType": "uint256",
              "name": "handicraftId",
              "type": "uint256"
            },
            {
              "internalType": "address payable",
              "name": "seller",
              "type": "address"
            },
            {
              "internalType": "address payable",
              "name": "owner",
              "type": "address"
            },
            {
              "internalType": "uint256",
              "name": "price",
              "type": "uint256"
            },
            {
              "internalType": "bool",
              "name": "sold",
              "type": "bool"
            }
          ],
          "internalType": "struct BitCrafty_Contract.Handicraft[]",
          "name": "",
          "type": "tuple[]"
        }
      ],
      "stateMutability": "view",
      "type": "function",
      "constant": true
    },
    {
      "inputs": [],
      "name": "fetchMyListedHandicrafts",
      "outputs": [
        {
          "components": [
            {
              "internalType": "uint256",
              "name": "handicraftId",
              "type": "uint256"
            },
            {
              "internalType": "address payable",
              "name": "seller",
              "type": "address"
            },
            {
              "internalType": "address payable",
              "name": "owner",
              "type": "address"
            },
            {
              "internalType": "uint256",
              "name": "price",
              "type": "uint256"
            },
            {
              "internalType": "bool",
              "name": "sold",
              "type": "bool"
            }
          ],
          "internalType": "struct BitCrafty_Contract.Handicraft[]",
          "name": "",
          "type": "tuple[]"
        }
      ],
      "stateMutability": "view",
      "type": "function",
      "constant": true
    },
    {
      "inputs": [],
      "name": "fetchRewards",
      "outputs": [
        {
          "internalType": "uint256",
          "name": "",
          "type": "uint256"
        }
      ],
      "stateMutability": "view",
      "type": "function",
      "constant": true
    },
    {
      "inputs": [
        {
          "internalType": "uint256",
          "name": "reward",
          "type": "uint256"
        }
      ],
      "name": "redeemReward",
      "outputs": [],
      "stateMutability": "payable",
      "type": "function",
      "payable": true
    },
    {
      "inputs": [
        {
          "internalType": "uint256",
          "name": "amount",
          "type": "uint256"
        },
        {
          "internalType": "address",
          "name": "to",
          "type": "address"
        },
        {
          "internalType": "address",
          "name": "from",
          "type": "address"
        }
      ],
      "name": "transferTokens",
      "outputs": [],
      "stateMutability": "payable",
      "type": "function",
      "payable": true
    },
    {
      "inputs": [],
      "name": "registrationReward",
      "outputs": [],
      "stateMutability": "nonpayable",
      "type": "function"
    },
    {
      "inputs": [
        {
          "internalType": "address",
          "name": "user",
          "type": "address"
        }
      ],
      "name": "getCheckIfAlreadyHaveBonus",
      "outputs": [
        {
          "internalType": "bool",
          "name": "",
          "type": "bool"
        }
      ],
      "stateMutability": "view",
      "type": "function",
      "constant": true
    }
  ],
  "bytecode": "0x60806040523480156200001157600080fd5b50604051620027e2380380620027e2833981810160405281019062000037919062000118565b33600360006101000a81548173ffffffffffffffffffffffffffffffffffffffff021916908373ffffffffffffffffffffffffffffffffffffffff16021790555080600560006101000a81548173ffffffffffffffffffffffffffffffffffffffff021916908373ffffffffffffffffffffffffffffffffffffffff16021790555080600660006101000a81548173ffffffffffffffffffffffffffffffffffffffff021916908373ffffffffffffffffffffffffffffffffffffffff1602179055505062000192565b600081519050620001128162000178565b92915050565b6000602082840312156200012b57600080fd5b60006200013b8482850162000101565b91505092915050565b6000620001518262000158565b9050919050565b600073ffffffffffffffffffffffffffffffffffffffff82169050919050565b620001838162000144565b81146200018f57600080fd5b50565b61264080620001a26000396000f3fe6080604052600436106100f35760003560e01c80639a98bce21161008a578063df1c80e311610059578063df1c80e3146102f4578063e0461eb91461031f578063ed21aa891461033b578063eef544c814610366576100f3565b80639a98bce214610259578063aa6ca80814610284578063be9af5361461029b578063d6077fbf146102b7576100f3565b806368a83f6c116100c657806368a83f6c146101ac578063761bdc1e146101e9578063865909f61461022657806390d18c531461023d576100f3565b8063278d2576146100f85780633bb3a24d146101285780633d256d0e1461016557806351a71b1714610190575b600080fd5b610112600480360381019061010d9190611bf2565b610391565b60405161011f91906120bf565b60405180910390f35b34801561013457600080fd5b5061014f600480360381019061014a9190611c46565b610437565b60405161015c919061201d565b60405180910390f35b34801561017157600080fd5b5061017a6104dc565b6040516101879190611fe0565b60405180910390f35b6101aa60048036038101906101a59190611c46565b61080c565b005b3480156101b857600080fd5b506101d360048036038101906101ce9190611ba0565b610a85565b6040516101e09190612002565b60405180910390f35b3480156101f557600080fd5b50610210600480360381019061020b9190611ba0565b610adb565b60405161021d9190612002565b60405180910390f35b34801561023257600080fd5b5061023b610afb565b005b61025760048036038101906102529190611ce7565b610c3d565b005b34801561026557600080fd5b5061026e610e39565b60405161027b9190611f20565b60405180910390f35b34801561029057600080fd5b50610299610e5f565b005b6102b560048036038101906102b09190611c46565b610e69565b005b3480156102c357600080fd5b506102de60048036038101906102d99190611c46565b611097565b6040516102eb91906120bf565b60405180910390f35b34801561030057600080fd5b506103096110b9565b6040516103169190611fe0565b60405180910390f35b61033960048036038101906103349190611c98565b611357565b005b34801561034757600080fd5b5061035061140e565b60405161035d91906120bf565b60405180910390f35b34801561037257600080fd5b5061037b6114c4565b6040516103889190611fe0565b60405180910390f35b600060016008546103a29190612185565b6008819055507f0f6798a560793a54c3bcfe86a93cde1e73087d944c0ea20544137d4121396885336008546040516103db929190611fb7565b60405180910390a182600160006008548152602001908152602001600020908051906020019061040c9291906119e4565b50610419600854836117f4565b61042c61042583611097565b3033611357565b600854905092915050565b606060016000838152602001908152602001600020805461045790612336565b80601f016020809104026020016040519081016040528092919081815260200182805461048390612336565b80156104d05780601f106104a5576101008083540402835291602001916104d0565b820191906000526020600020905b8154815290600101906020018083116104b357829003601f168201915b50505050509050919050565b60606000600854905060008060005b8381101561058b573373ffffffffffffffffffffffffffffffffffffffff1660008060018461051a9190612185565b815260200190815260200160002060010160009054906101000a900473ffffffffffffffffffffffffffffffffffffffff1673ffffffffffffffffffffffffffffffffffffffff161415610578576001836105759190612185565b92505b808061058390612399565b9150506104eb565b5060008267ffffffffffffffff8111156105ce577f4e487b7100000000000000000000000000000000000000000000000000000000600052604160045260246000fd5b60405190808252806020026020018201604052801561060757816020015b6105f4611a6a565b8152602001906001900390816105ec5790505b50905060005b84811015610801573373ffffffffffffffffffffffffffffffffffffffff1660008060018461063c9190612185565b815260200190815260200160002060010160009054906101000a900473ffffffffffffffffffffffffffffffffffffffff1673ffffffffffffffffffffffffffffffffffffffff1614156107ee5760006001826106999190612185565b905060008060008381526020019081526020016000209050806040518060a0016040529081600082015481526020016001820160009054906101000a900473ffffffffffffffffffffffffffffffffffffffff1673ffffffffffffffffffffffffffffffffffffffff1673ffffffffffffffffffffffffffffffffffffffff1681526020016002820160009054906101000a900473ffffffffffffffffffffffffffffffffffffffff1673ffffffffffffffffffffffffffffffffffffffff1673ffffffffffffffffffffffffffffffffffffffff168152602001600382015481526020016004820160009054906101000a900460ff1615151515815250508486815181106107d1577f4e487b7100000000000000000000000000000000000000000000000000000000600052603260045260246000fd5b60200260200101819052506001856107e99190612185565b945050505b80806107f990612399565b91505061060d565b508094505050505090565b678ac7230489e80000600260003373ffffffffffffffffffffffffffffffffffffffff1673ffffffffffffffffffffffffffffffffffffffff168152602001908152602001600020541015610896576040517f08c379a000000000000000000000000000000000000000000000000000000000815260040161088d9061209f565b60405180910390fd5b34600560009054906101000a900473ffffffffffffffffffffffffffffffffffffffff1673ffffffffffffffffffffffffffffffffffffffff166370a08231306040518263ffffffff1660e01b81526004016108f29190611f20565b60206040518083038186803b15801561090a57600080fd5b505afa15801561091e573d6000803e3d6000fd5b505050506040513d601f19601f820116820180604052508101906109429190611c6f565b11610982576040517f08c379a00000000000000000000000000000000000000000000000000000000081526004016109799061203f565b60405180910390fd5b600560009054906101000a900473ffffffffffffffffffffffffffffffffffffffff1673ffffffffffffffffffffffffffffffffffffffff1663095ea7b330836040518363ffffffff1660e01b81526004016109df929190611fb7565b602060405180830381600087803b1580156109f957600080fd5b505af1158015610a0d573d6000803e3d6000fd5b505050506040513d601f19601f82011682018060405250810190610a319190611bc9565b50610a3d813330611357565b6000600260003373ffffffffffffffffffffffffffffffffffffffff1673ffffffffffffffffffffffffffffffffffffffff1681526020019081526020016000208190555050565b6000600460008373ffffffffffffffffffffffffffffffffffffffff1673ffffffffffffffffffffffffffffffffffffffff16815260200190815260200160002060009054906101000a900460ff169050919050565b60046020528060005260406000206000915054906101000a900460ff1681565b60011515600460003373ffffffffffffffffffffffffffffffffffffffff1673ffffffffffffffffffffffffffffffffffffffff16815260200190815260200160002060009054906101000a900460ff161515151415610c3b576001600460003373ffffffffffffffffffffffffffffffffffffffff1673ffffffffffffffffffffffffffffffffffffffff16815260200190815260200160002060006101000a81548160ff021916908315150217905550600560009054906101000a900473ffffffffffffffffffffffffffffffffffffffff1673ffffffffffffffffffffffffffffffffffffffff166321860a05336040518263ffffffff1660e01b8152600401610c089190611f20565b600060405180830381600087803b158015610c2257600080fd5b505af1158015610c36573d6000803e3d6000fd5b505050505b565b813373ffffffffffffffffffffffffffffffffffffffff1660008083815260200190815260200160002060020160009054906101000a900473ffffffffffffffffffffffffffffffffffffffff1673ffffffffffffffffffffffffffffffffffffffff1614610ce1576040517f08c379a0000000000000000000000000000000000000000000000000000000008152600401610cd89061205f565b60405180910390fd5b8160008085815260200190815260200160002060030181905550600080600085815260200190815260200160002060040160006101000a81548160ff0219169083151502179055503060008085815260200190815260200160002060020160006101000a81548173ffffffffffffffffffffffffffffffffffffffff021916908373ffffffffffffffffffffffffffffffffffffffff1602179055503360008085815260200190815260200160002060010160006101000a81548173ffffffffffffffffffffffffffffffffffffffff021916908373ffffffffffffffffffffffffffffffffffffffff1602179055507fddf252ad1be2c89b69c2b068fc378daa952ba7f163c4a11628f55a4df523b3ef333085604051610e0493929190611f3b565b60405180910390a1610e1f610e1883611097565b3033611357565b6001600754610e2e9190612266565b600781905550505050565b600660009054906101000a900473ffffffffffffffffffffffffffffffffffffffff1681565b610e67610afb565b565b6000806000838152602001908152602001600020600301549050600080600084815260200190815260200160002060010160009054906101000a900473ffffffffffffffffffffffffffffffffffffffff1690503360008085815260200190815260200160002060020160006101000a81548173ffffffffffffffffffffffffffffffffffffffff021916908373ffffffffffffffffffffffffffffffffffffffff160217905550600160008085815260200190815260200160002060040160006101000a81548160ff021916908315150217905550600080600085815260200190815260200160002060010160006101000a81548173ffffffffffffffffffffffffffffffffffffffff021916908373ffffffffffffffffffffffffffffffffffffffff1602179055506001600754610fa39190612185565b6007819055507fddf252ad1be2c89b69c2b068fc378daa952ba7f163c4a11628f55a4df523b3ef303385604051610fdc93929190611f3b565b60405180910390a1610fef828233611357565b60008084815260200190815260200160002060030154600260003373ffffffffffffffffffffffffffffffffffffffff1673ffffffffffffffffffffffffffffffffffffffff1681526020019081526020016000205461104f9190612185565b600260003373ffffffffffffffffffffffffffffffffffffffff1673ffffffffffffffffffffffffffffffffffffffff16815260200190815260200160002081905550505050565b600060646002836110a8919061220c565b6110b291906121db565b9050919050565b60606000600854905060006007546008546110d49190612266565b90506000808267ffffffffffffffff811115611119577f4e487b7100000000000000000000000000000000000000000000000000000000600052604160045260246000fd5b60405190808252806020026020018201604052801561115257816020015b61113f611a6a565b8152602001906001900390816111375790505b50905060005b8481101561134c573073ffffffffffffffffffffffffffffffffffffffff166000806001846111879190612185565b815260200190815260200160002060020160009054906101000a900473ffffffffffffffffffffffffffffffffffffffff1673ffffffffffffffffffffffffffffffffffffffff1614156113395760006001826111e49190612185565b905060008060008381526020019081526020016000209050806040518060a0016040529081600082015481526020016001820160009054906101000a900473ffffffffffffffffffffffffffffffffffffffff1673ffffffffffffffffffffffffffffffffffffffff1673ffffffffffffffffffffffffffffffffffffffff1681526020016002820160009054906101000a900473ffffffffffffffffffffffffffffffffffffffff1673ffffffffffffffffffffffffffffffffffffffff1673ffffffffffffffffffffffffffffffffffffffff168152602001600382015481526020016004820160009054906101000a900460ff16151515158152505084868151811061131c577f4e487b7100000000000000000000000000000000000000000000000000000000600052603260045260246000fd5b60200260200101819052506001856113349190612185565b945050505b808061134490612399565b915050611158565b508094505050505090565b600560009054906101000a900473ffffffffffffffffffffffffffffffffffffffff1673ffffffffffffffffffffffffffffffffffffffff166323b872dd8284866040518463ffffffff1660e01b81526004016113b693929190611f3b565b602060405180830381600087803b1580156113d057600080fd5b505af11580156113e4573d6000803e3d6000fd5b505050506040513d601f19601f820116820180604052508101906114089190611bc9565b50505050565b6000600a600260003373ffffffffffffffffffffffffffffffffffffffff1673ffffffffffffffffffffffffffffffffffffffff16815260200190815260200160002054106114bc57600060646001600260003373ffffffffffffffffffffffffffffffffffffffff1673ffffffffffffffffffffffffffffffffffffffff168152602001908152602001600020546114a7919061220c565b6114b191906121db565b9050809150506114c1565b600090505b90565b60606000600854905060008060005b83811015611573573373ffffffffffffffffffffffffffffffffffffffff166000806001846115029190612185565b815260200190815260200160002060020160009054906101000a900473ffffffffffffffffffffffffffffffffffffffff1673ffffffffffffffffffffffffffffffffffffffff1614156115605760018361155d9190612185565b92505b808061156b90612399565b9150506114d3565b5060008267ffffffffffffffff8111156115b6577f4e487b7100000000000000000000000000000000000000000000000000000000600052604160045260246000fd5b6040519080825280602002602001820160405280156115ef57816020015b6115dc611a6a565b8152602001906001900390816115d45790505b50905060005b848110156117e9573373ffffffffffffffffffffffffffffffffffffffff166000806001846116249190612185565b815260200190815260200160002060020160009054906101000a900473ffffffffffffffffffffffffffffffffffffffff1673ffffffffffffffffffffffffffffffffffffffff1614156117d65760006001826116819190612185565b905060008060008381526020019081526020016000209050806040518060a0016040529081600082015481526020016001820160009054906101000a900473ffffffffffffffffffffffffffffffffffffffff1673ffffffffffffffffffffffffffffffffffffffff1673ffffffffffffffffffffffffffffffffffffffff1681526020016002820160009054906101000a900473ffffffffffffffffffffffffffffffffffffffff1673ffffffffffffffffffffffffffffffffffffffff1673ffffffffffffffffffffffffffffffffffffffff168152602001600382015481526020016004820160009054906101000a900460ff1615151515815250508486815181106117b9577f4e487b7100000000000000000000000000000000000000000000000000000000600052603260045260246000fd5b60200260200101819052506001856117d19190612185565b945050505b80806117e190612399565b9150506115f5565b508094505050505090565b8060008111611838576040517f08c379a000000000000000000000000000000000000000000000000000000000815260040161182f9061207f565b60405180910390fd5b6040518060a001604052808481526020013373ffffffffffffffffffffffffffffffffffffffff1681526020013073ffffffffffffffffffffffffffffffffffffffff168152602001838152602001600015158152506000808581526020019081526020016000206000820151816000015560208201518160010160006101000a81548173ffffffffffffffffffffffffffffffffffffffff021916908373ffffffffffffffffffffffffffffffffffffffff16021790555060408201518160020160006101000a81548173ffffffffffffffffffffffffffffffffffffffff021916908373ffffffffffffffffffffffffffffffffffffffff1602179055506060820151816003015560808201518160040160006101000a81548160ff0219169083151502179055509050507fddf252ad1be2c89b69c2b068fc378daa952ba7f163c4a11628f55a4df523b3ef33308560405161199893929190611f3b565b60405180910390a1827fc21cfd0d9c9fb774f22eea9a4809adf2815033c77141d2032225e05cab6cf5dd33308560006040516119d79493929190611f72565b60405180910390a2505050565b8280546119f090612336565b90600052602060002090601f016020900481019282611a125760008555611a59565b82601f10611a2b57805160ff1916838001178555611a59565b82800160010185558215611a59579182015b82811115611a58578251825591602001919060010190611a3d565b5b509050611a669190611ac7565b5090565b6040518060a0016040528060008152602001600073ffffffffffffffffffffffffffffffffffffffff168152602001600073ffffffffffffffffffffffffffffffffffffffff168152602001600081526020016000151581525090565b5b80821115611ae0576000816000905550600101611ac8565b5090565b6000611af7611af2846120ff565b6120da565b905082815260208101848484011115611b0f57600080fd5b611b1a8482856122f4565b509392505050565b600081359050611b31816125c5565b92915050565b600081519050611b46816125dc565b92915050565b600082601f830112611b5d57600080fd5b8135611b6d848260208601611ae4565b91505092915050565b600081359050611b85816125f3565b92915050565b600081519050611b9a816125f3565b92915050565b600060208284031215611bb257600080fd5b6000611bc084828501611b22565b91505092915050565b600060208284031215611bdb57600080fd5b6000611be984828501611b37565b91505092915050565b60008060408385031215611c0557600080fd5b600083013567ffffffffffffffff811115611c1f57600080fd5b611c2b85828601611b4c565b9250506020611c3c85828601611b76565b9150509250929050565b600060208284031215611c5857600080fd5b6000611c6684828501611b76565b91505092915050565b600060208284031215611c8157600080fd5b6000611c8f84828501611b8b565b91505092915050565b600080600060608486031215611cad57600080fd5b6000611cbb86828701611b76565b9350506020611ccc86828701611b22565b9250506040611cdd86828701611b22565b9150509250925092565b60008060408385031215611cfa57600080fd5b6000611d0885828601611b76565b9250506020611d1985828601611b76565b9150509250929050565b6000611d2f8383611e9a565b60a08301905092915050565b611d44816122ac565b82525050565b611d538161229a565b82525050565b6000611d6482612140565b611d6e8185612163565b9350611d7983612130565b8060005b83811015611daa578151611d918882611d23565b9750611d9c83612156565b925050600181019050611d7d565b5085935050505092915050565b611dc0816122be565b82525050565b611dcf816122be565b82525050565b6000611de08261214b565b611dea8185612174565b9350611dfa818560208601612303565b611e038161249e565b840191505092915050565b6000611e1b603e83612174565b9150611e26826124af565b604082019050919050565b6000611e3e601f83612174565b9150611e49826124fe565b602082019050919050565b6000611e61602583612174565b9150611e6c82612527565b604082019050919050565b6000611e84603d83612174565b9150611e8f82612576565b604082019050919050565b60a082016000820151611eb06000850182611f02565b506020820151611ec36020850182611d3b565b506040820151611ed66040850182611d3b565b506060820151611ee96060850182611f02565b506080820151611efc6080850182611db7565b50505050565b611f0b816122ea565b82525050565b611f1a816122ea565b82525050565b6000602082019050611f356000830184611d4a565b92915050565b6000606082019050611f506000830186611d4a565b611f5d6020830185611d4a565b611f6a6040830184611f11565b949350505050565b6000608082019050611f876000830187611d4a565b611f946020830186611d4a565b611fa16040830185611f11565b611fae6060830184611dc6565b95945050505050565b6000604082019050611fcc6000830185611d4a565b611fd96020830184611f11565b9392505050565b60006020820190508181036000830152611ffa8184611d59565b905092915050565b60006020820190506120176000830184611dc6565b92915050565b600060208201905081810360008301526120378184611dd5565b905092915050565b6000602082019050818103600083015261205881611e0e565b9050919050565b6000602082019050818103600083015261207881611e31565b9050919050565b6000602082019050818103600083015261209881611e54565b9050919050565b600060208201905081810360008301526120b881611e77565b9050919050565b60006020820190506120d46000830184611f11565b92915050565b60006120e46120f5565b90506120f08282612368565b919050565b6000604051905090565b600067ffffffffffffffff82111561211a5761211961246f565b5b6121238261249e565b9050602081019050919050565b6000819050602082019050919050565b600081519050919050565b600081519050919050565b6000602082019050919050565b600082825260208201905092915050565b600082825260208201905092915050565b6000612190826122ea565b915061219b836122ea565b9250827fffffffffffffffffffffffffffffffffffffffffffffffffffffffffffffffff038211156121d0576121cf6123e2565b5b828201905092915050565b60006121e6826122ea565b91506121f1836122ea565b92508261220157612200612411565b5b828204905092915050565b6000612217826122ea565b9150612222836122ea565b9250817fffffffffffffffffffffffffffffffffffffffffffffffffffffffffffffffff048311821515161561225b5761225a6123e2565b5b828202905092915050565b6000612271826122ea565b915061227c836122ea565b92508282101561228f5761228e6123e2565b5b828203905092915050565b60006122a5826122ca565b9050919050565b60006122b7826122ca565b9050919050565b60008115159050919050565b600073ffffffffffffffffffffffffffffffffffffffff82169050919050565b6000819050919050565b82818337600083830152505050565b60005b83811015612321578082015181840152602081019050612306565b83811115612330576000848401525b50505050565b6000600282049050600182168061234e57607f821691505b6020821081141561236257612361612440565b5b50919050565b6123718261249e565b810181811067ffffffffffffffff821117156123905761238f61246f565b5b80604052505050565b60006123a4826122ea565b91507fffffffffffffffffffffffffffffffffffffffffffffffffffffffffffffffff8214156123d7576123d66123e2565b5b600182019050919050565b7f4e487b7100000000000000000000000000000000000000000000000000000000600052601160045260246000fd5b7f4e487b7100000000000000000000000000000000000000000000000000000000600052601260045260246000fd5b7f4e487b7100000000000000000000000000000000000000000000000000000000600052602260045260246000fd5b7f4e487b7100000000000000000000000000000000000000000000000000000000600052604160045260246000fd5b6000601f19601f8301169050919050565b7f536d61727420636f6e74726163742062616c616e63652073686f756c6420617460008201527f206c656173742062652067726561746572207468616e20726577617264200000602082015250565b7f4f6e6c792068616e64696372616674206f776e65722063616e2073656c6c2e00600082015250565b7f506c6561736520656e7465722070726963652067726561746572207468616e2060008201527f7a65726f2e000000000000000000000000000000000000000000000000000000602082015250565b7f546f74616c2070757263686173652076616c75652073686f756c642061746c6560008201527f6173742062652067726561746572207468616e20313020457468657273000000602082015250565b6125ce8161229a565b81146125d957600080fd5b50565b6125e5816122be565b81146125f057600080fd5b50565b6125fc816122ea565b811461260757600080fd5b5056fea2646970667358221220c66fa6a58b6f3914ebdfb29a77fcbded1c871a0353e75036e0710596f8e119e064736f6c63430008040033",
  "immutableReferences": {},
  "source": "// SPDX-License-Identifier: MIT\npragma solidity ^0.8.4;\n\nimport \"./UNIQ.sol\";\n\ncontract BitCrafty_Contract {\n\n    mapping(uint256 => Handicraft) private idToHandicraft;\n    mapping(uint256 => string) private tokenUriMapping;\n\n    mapping(address => uint256) private totalPurchaseValue;\n    address private owner;\n\n    struct Handicraft {uint256 handicraftId;\n        address payable seller;\n        address payable owner;\n        uint256 price;\n        bool sold;}\n\n    mapping(address => bool) public isPresent;\n    UNIQ private uniq;\n    address public uniqContract;\n\n    event HandicraftCreated (uint256 indexed handicraftId, address seller, address owner, uint256 price, bool sold);\n\n    event Transfer(address seller, address owner, uint256 handicraftId);\n    event Mint(address to, uint256 handicraftId);\n\n    uint private handicraftsSold;\n    uint private handicraftIds;\n\n    modifier priceGreaterThanZero(uint256 price){require(price > 0, \"Please enter price greater than zero.\");\n        _;}\n\n    modifier onlyItemOwner(uint256 handicraftId){require(idToHandicraft[handicraftId].owner == msg.sender, \"Only handicraft owner can sell.\");\n        _;}\n    modifier amountSpentIsGreaterThan10{require(totalPurchaseValue[msg.sender] >= 10000000000000000000, \"Total purchase value should atleast be greater than 10 Ethers\");\n        _;}\n\n    modifier ownerBalanceIsGreaterThanReward{\n        require(address(this).balance > msg.value, \"Smart contract balance should at least be greater than reward \");\n        _;}\n\n\n    constructor(address token){owner = msg.sender;\n        uniq = UNIQ(token);\n        uniqContract = token;}\n\n    function getTokens() public {registrationReward();}\n\n    function createHandicraftToken(string memory tokenURI, uint256 price) public payable returns (uint) {handicraftIds = handicraftIds + 1;\n        emit Mint(msg.sender, handicraftIds);\n        tokenUriMapping[handicraftIds] = tokenURI;\n        createHandicraft(handicraftIds, price);\n        transferTokens(getListingPrice(price), address(this), msg.sender);\n        return handicraftIds;}\n\n    function createHandicraft(uint256 handicraftId, uint256 price) private priceGreaterThanZero(price) {idToHandicraft[handicraftId] = Handicraft(handicraftId, payable(msg.sender), payable(address(this)), price, false);\n        emit Transfer(msg.sender, address(this), handicraftId);\n        emit HandicraftCreated(handicraftId, msg.sender, address(this), price, false);}\n\n    function getTokenURI(uint256 handicraftId) public view returns (string memory) {return tokenUriMapping[handicraftId];}\n\n    function getListingPrice(uint256 price) public pure returns (uint256) {return (price * 2) / 100;}\n\n    function createMarketSale(uint256 handicraftId) public payable {uint price = idToHandicraft[handicraftId].price;\n        address seller = idToHandicraft[handicraftId].seller;\n        idToHandicraft[handicraftId].owner = payable(msg.sender);\n        idToHandicraft[handicraftId].sold = true;\n        idToHandicraft[handicraftId].seller = payable(address(0));\n        handicraftsSold = handicraftsSold + 1;\n        emit Transfer(address(this), msg.sender, handicraftId);\n        transferTokens(price, seller, msg.sender);\n        totalPurchaseValue[msg.sender] = totalPurchaseValue[msg.sender] + idToHandicraft[handicraftId].price;}\n\n    function resellHandicraft(uint256 handicraftId, uint256 price) public payable onlyItemOwner(handicraftId) {idToHandicraft[handicraftId].price = price;\n        idToHandicraft[handicraftId].sold = false;\n        idToHandicraft[handicraftId].owner = payable(address(this));\n        idToHandicraft[handicraftId].seller = payable(msg.sender);\n        emit Transfer(msg.sender, address(this), handicraftId);\n        transferTokens(getListingPrice(price), address(this), msg.sender);\n        handicraftsSold = handicraftsSold - 1;}\n\n    function fetchHandicrafts() public view returns (Handicraft[] memory) {uint itemCount = handicraftIds;\n        uint unsoldItemCount = handicraftIds - handicraftsSold;\n        uint currentIndex = 0;\n        Handicraft[] memory items = new Handicraft[](unsoldItemCount);\n        for (uint i = 0; i < itemCount; i++) {if (idToHandicraft[i + 1].owner == address(this)) {uint currentId = i + 1;\n            Handicraft storage currentItem = idToHandicraft[currentId];\n            items[currentIndex] = currentItem;\n            currentIndex += 1;}}\n        return items;}\n\n    function fetchMyHandicrafts() public view returns (Handicraft[] memory) {uint totalItemCount = handicraftIds;\n        uint itemCount = 0;\n        uint currentIndex = 0;\n        for (uint i = 0; i < totalItemCount; i++) {if (idToHandicraft[i + 1].owner == msg.sender) {itemCount += 1;}}\n        Handicraft[] memory items = new Handicraft[](itemCount);\n        for (uint i = 0; i < totalItemCount; i++) {if (idToHandicraft[i + 1].owner == msg.sender) {uint currentId = i + 1;\n            Handicraft storage currentItem = idToHandicraft[currentId];\n            items[currentIndex] = currentItem;\n            currentIndex += 1;}}\n        return items;}\n\n    function fetchMyListedHandicrafts() public view returns (Handicraft[] memory) {uint totalItemCount = handicraftIds;\n        uint itemCount = 0;\n        uint currentIndex = 0;\n        for (uint i = 0; i < totalItemCount; i++) {if (idToHandicraft[i + 1].seller == msg.sender) {itemCount += 1;}}\n        Handicraft[] memory items = new Handicraft[](itemCount);\n        for (uint i = 0; i < totalItemCount; i++) {if (idToHandicraft[i + 1].seller == msg.sender) {uint currentId = i + 1;\n            Handicraft storage currentItem = idToHandicraft[currentId];\n            items[currentIndex] = currentItem;\n            currentIndex += 1;}}\n        return items;}\n\n    function fetchRewards() public view returns (uint256) {if (totalPurchaseValue[msg.sender] >= 10) {uint reward = (totalPurchaseValue[msg.sender] * 1) / 100;\n        return reward;}\n        return 0;}\n\n    function redeemReward(uint reward) public amountSpentIsGreaterThan10 payable {\n        require(uniq.balanceOf(address(this)) > msg.value, \"Smart contract balance should at least be greater than reward \");\n        uniq.approve(address(this), reward);\n        transferTokens(reward, msg.sender, address(this));\n        totalPurchaseValue[msg.sender] = 0;}\n\n    function transferTokens(uint256 amount, address to, address from) public payable {\n        uniq.transferFrom(from, to, amount);\n    }\n\n    function registrationReward() public {\n        if (!isPresent[msg.sender] == true) {\n            isPresent[msg.sender] = true;\n        uniq.airdrop(msg.sender);}}\n\n    function getCheckIfAlreadyHaveBonus(address user) public view returns (bool)  {\n        return isPresent[user];}\n\n}",
  "sourcePath": "/Users/farhanchowdhury/Desktop/50304468_50367314_Phase3_BitCrafty-UNIQ-Dapp-dev/bitcrafty-contract/contracts/BitCrafty_Contract.sol",
  "compiler": {
    "name": "solc",
    "version": "0.8.4+commit.c7e474f2.Emscripten.clang"
  },
  "schemaVersion": "3.4.6",
  "updatedAt": "2022-10-15T20:43:25.955Z",
  "networkType": "ethereum",
  "devdoc": {
    "kind": "dev",
    "methods": {},
    "version": 1
  },
  "userdoc": {
    "kind": "user",
    "methods": {},
    "version": 1
  }
}