{
  "contractName": "UNIQ",
  "abi": [
    {
      "inputs": [],
      "stateMutability": "nonpayable",
      "type": "constructor"
    },
    {
      "anonymous": false,
      "inputs": [
        {
          "indexed": true,
          "internalType": "address",
          "name": "owner",
          "type": "address"
        },
        {
          "indexed": true,
          "internalType": "address",
          "name": "spender",
          "type": "address"
        },
        {
          "indexed": false,
          "internalType": "uint256",
          "name": "value",
          "type": "uint256"
        }
      ],
      "name": "Approval",
      "type": "event"
    },
    {
      "anonymous": false,
      "inputs": [
        {
          "indexed": true,
          "internalType": "address",
          "name": "from",
          "type": "address"
        },
        {
          "indexed": true,
          "internalType": "address",
          "name": "to",
          "type": "address"
        },
        {
          "indexed": false,
          "internalType": "uint256",
          "name": "value",
          "type": "uint256"
        }
      ],
      "name": "Transfer",
      "type": "event"
    },
    {
      "inputs": [
        {
          "internalType": "address",
          "name": "owner",
          "type": "address"
        },
        {
          "internalType": "address",
          "name": "spender",
          "type": "address"
        }
      ],
      "name": "allowance",
      "outputs": [
        {
          "internalType": "uint256",
          "name": "",
          "type": "uint256"
        }
      ],
      "stateMutability": "view",
      "type": "function",
      "constant": true
    },
    {
      "inputs": [
        {
          "internalType": "address",
          "name": "spender",
          "type": "address"
        },
        {
          "internalType": "uint256",
          "name": "amount",
          "type": "uint256"
        }
      ],
      "name": "approve",
      "outputs": [
        {
          "internalType": "bool",
          "name": "",
          "type": "bool"
        }
      ],
      "stateMutability": "nonpayable",
      "type": "function"
    },
    {
      "inputs": [
        {
          "internalType": "address",
          "name": "account",
          "type": "address"
        }
      ],
      "name": "balanceOf",
      "outputs": [
        {
          "internalType": "uint256",
          "name": "",
          "type": "uint256"
        }
      ],
      "stateMutability": "view",
      "type": "function",
      "constant": true
    },
    {
      "inputs": [],
      "name": "decimals",
      "outputs": [
        {
          "internalType": "uint8",
          "name": "",
          "type": "uint8"
        }
      ],
      "stateMutability": "view",
      "type": "function",
      "constant": true
    },
    {
      "inputs": [
        {
          "internalType": "address",
          "name": "spender",
          "type": "address"
        },
        {
          "internalType": "uint256",
          "name": "subtractedValue",
          "type": "uint256"
        }
      ],
      "name": "decreaseAllowance",
      "outputs": [
        {
          "internalType": "bool",
          "name": "",
          "type": "bool"
        }
      ],
      "stateMutability": "nonpayable",
      "type": "function"
    },
    {
      "inputs": [
        {
          "internalType": "address",
          "name": "spender",
          "type": "address"
        },
        {
          "internalType": "uint256",
          "name": "addedValue",
          "type": "uint256"
        }
      ],
      "name": "increaseAllowance",
      "outputs": [
        {
          "internalType": "bool",
          "name": "",
          "type": "bool"
        }
      ],
      "stateMutability": "nonpayable",
      "type": "function"
    },
    {
      "inputs": [
        {
          "internalType": "address",
          "name": "",
          "type": "address"
        }
      ],
      "name": "isPresent",
      "outputs": [
        {
          "internalType": "bool",
          "name": "",
          "type": "bool"
        }
      ],
      "stateMutability": "view",
      "type": "function",
      "constant": true
    },
    {
      "inputs": [],
      "name": "name",
      "outputs": [
        {
          "internalType": "string",
          "name": "",
          "type": "string"
        }
      ],
      "stateMutability": "view",
      "type": "function",
      "constant": true
    },
    {
      "inputs": [],
      "name": "owner",
      "outputs": [
        {
          "internalType": "address",
          "name": "",
          "type": "address"
        }
      ],
      "stateMutability": "view",
      "type": "function",
      "constant": true
    },
    {
      "inputs": [],
      "name": "symbol",
      "outputs": [
        {
          "internalType": "string",
          "name": "",
          "type": "string"
        }
      ],
      "stateMutability": "view",
      "type": "function",
      "constant": true
    },
    {
      "inputs": [],
      "name": "totalSupply",
      "outputs": [
        {
          "internalType": "uint256",
          "name": "",
          "type": "uint256"
        }
      ],
      "stateMutability": "view",
      "type": "function",
      "constant": true
    },
    {
      "inputs": [
        {
          "internalType": "address",
          "name": "to",
          "type": "address"
        },
        {
          "internalType": "uint256",
          "name": "amount",
          "type": "uint256"
        }
      ],
      "name": "transfer",
      "outputs": [
        {
          "internalType": "bool",
          "name": "",
          "type": "bool"
        }
      ],
      "stateMutability": "nonpayable",
      "type": "function"
    },
    {
      "inputs": [
        {
          "internalType": "address",
          "name": "from",
          "type": "address"
        },
        {
          "internalType": "address",
          "name": "to",
          "type": "address"
        },
        {
          "internalType": "uint256",
          "name": "amount",
          "type": "uint256"
        }
      ],
      "name": "transferFrom",
      "outputs": [
        {
          "internalType": "bool",
          "name": "",
          "type": "bool"
        }
      ],
      "stateMutability": "nonpayable",
      "type": "function"
    },
    {
      "inputs": [
        {
          "internalType": "address",
          "name": "receiver",
          "type": "address"
        }
      ],
      "name": "airdrop",
      "outputs": [],
      "stateMutability": "nonpayable",
      "type": "function"
    }
  ],
  "bytecode": "0x60806040523480156200001157600080fd5b506040518060400160405280600481526020017f554e4951000000000000000000000000000000000000000000000000000000008152506040518060400160405280600481526020017f554e495100000000000000000000000000000000000000000000000000000000815250816003908051906020019062000096929190620002bc565b508060049080519060200190620000af929190620002bc565b50505030600660006101000a81548173ffffffffffffffffffffffffffffffffffffffff021916908373ffffffffffffffffffffffffffffffffffffffff16021790555062000133600660009054906101000a900473ffffffffffffffffffffffffffffffffffffffff166b204fce5e3e250261100000006200013960201b60201c565b62000518565b600073ffffffffffffffffffffffffffffffffffffffff168273ffffffffffffffffffffffffffffffffffffffff161415620001ac576040517f08c379a0000000000000000000000000000000000000000000000000000000008152600401620001a390620003a4565b60405180910390fd5b620001c060008383620002b260201b60201c565b8060026000828254620001d49190620003f4565b92505081905550806000808473ffffffffffffffffffffffffffffffffffffffff1673ffffffffffffffffffffffffffffffffffffffff16815260200190815260200160002060008282546200022b9190620003f4565b925050819055508173ffffffffffffffffffffffffffffffffffffffff16600073ffffffffffffffffffffffffffffffffffffffff167fddf252ad1be2c89b69c2b068fc378daa952ba7f163c4a11628f55a4df523b3ef83604051620002929190620003c6565b60405180910390a3620002ae60008383620002b760201b60201c565b5050565b505050565b505050565b828054620002ca906200045b565b90600052602060002090601f016020900481019282620002ee57600085556200033a565b82601f106200030957805160ff19168380011785556200033a565b828001600101855582156200033a579182015b82811115620003395782518255916020019190600101906200031c565b5b5090506200034991906200034d565b5090565b5b80821115620003685760008160009055506001016200034e565b5090565b60006200037b601f83620003e3565b91506200038882620004ef565b602082019050919050565b6200039e8162000451565b82525050565b60006020820190508181036000830152620003bf816200036c565b9050919050565b6000602082019050620003dd600083018462000393565b92915050565b600082825260208201905092915050565b6000620004018262000451565b91506200040e8362000451565b9250827fffffffffffffffffffffffffffffffffffffffffffffffffffffffffffffffff0382111562000446576200044562000491565b5b828201905092915050565b6000819050919050565b600060028204905060018216806200047457607f821691505b602082108114156200048b576200048a620004c0565b5b50919050565b7f4e487b7100000000000000000000000000000000000000000000000000000000600052601160045260246000fd5b7f4e487b7100000000000000000000000000000000000000000000000000000000600052602260045260246000fd5b7f45524332303a206d696e7420746f20746865207a65726f206164647265737300600082015250565b6113a780620005286000396000f3fe608060405234801561001057600080fd5b50600436106100ea5760003560e01c806370a082311161008c57806395d89b411161006657806395d89b4114610273578063a457c2d714610291578063a9059cbb146102c1578063dd62ed3e146102f1576100ea565b806370a08231146101f5578063761bdc1e146102255780638da5cb5b14610255576100ea565b806321860a05116100c857806321860a051461015b57806323b872dd14610177578063313ce567146101a757806339509351146101c5576100ea565b806306fdde03146100ef578063095ea7b31461010d57806318160ddd1461013d575b600080fd5b6100f7610321565b6040516101049190610e6d565b60405180910390f35b61012760048036038101906101229190610c91565b6103b3565b6040516101349190610e52565b60405180910390f35b6101456103d6565b6040516101529190610f6f565b60405180910390f35b61017560048036038101906101709190610bdd565b6103e0565b005b610191600480360381019061018c9190610c42565b610419565b60405161019e9190610e52565b60405180910390f35b6101af610448565b6040516101bc9190610f8a565b60405180910390f35b6101df60048036038101906101da9190610c91565b610451565b6040516101ec9190610e52565b60405180910390f35b61020f600480360381019061020a9190610bdd565b610488565b60405161021c9190610f6f565b60405180910390f35b61023f600480360381019061023a9190610bdd565b6104d0565b60405161024c9190610e52565b60405180910390f35b61025d6104f0565b60405161026a9190610e37565b60405180910390f35b61027b610516565b6040516102889190610e6d565b60405180910390f35b6102ab60048036038101906102a69190610c91565b6105a8565b6040516102b89190610e52565b60405180910390f35b6102db60048036038101906102d69190610c91565b61061f565b6040516102e89190610e52565b60405180910390f35b61030b60048036038101906103069190610c06565b610642565b6040516103189190610f6f565b60405180910390f35b6060600380546103309061109f565b80601f016020809104026020016040519081016040528092919081815260200182805461035c9061109f565b80156103a95780601f1061037e576101008083540402835291602001916103a9565b820191906000526020600020905b81548152906001019060200180831161038c57829003601f168201915b5050505050905090565b6000806103be6106c9565b90506103cb8185856106d1565b600191505092915050565b6000600254905090565b610416600660009054906101000a900473ffffffffffffffffffffffffffffffffffffffff1682683635c9adc5dea0000061089c565b50565b6000806104246106c9565b9050610431858285610b1d565b61043c85858561089c565b60019150509392505050565b60006012905090565b60008061045c6106c9565b905061047d81858561046e8589610642565b6104789190610fc1565b6106d1565b600191505092915050565b60008060008373ffffffffffffffffffffffffffffffffffffffff1673ffffffffffffffffffffffffffffffffffffffff168152602001908152602001600020549050919050565b60056020528060005260406000206000915054906101000a900460ff1681565b600660009054906101000a900473ffffffffffffffffffffffffffffffffffffffff1681565b6060600480546105259061109f565b80601f01602080910402602001604051908101604052809291908181526020018280546105519061109f565b801561059e5780601f106105735761010080835404028352916020019161059e565b820191906000526020600020905b81548152906001019060200180831161058157829003601f168201915b5050505050905090565b6000806105b36106c9565b905060006105c18286610642565b905083811015610606576040517f08c379a00000000000000000000000000000000000000000000000000000000081526004016105fd90610f4f565b60405180910390fd5b61061382868684036106d1565b60019250505092915050565b60008061062a6106c9565b905061063781858561089c565b600191505092915050565b6000600160008473ffffffffffffffffffffffffffffffffffffffff1673ffffffffffffffffffffffffffffffffffffffff16815260200190815260200160002060008373ffffffffffffffffffffffffffffffffffffffff1673ffffffffffffffffffffffffffffffffffffffff16815260200190815260200160002054905092915050565b600033905090565b600073ffffffffffffffffffffffffffffffffffffffff168373ffffffffffffffffffffffffffffffffffffffff161415610741576040517f08c379a000000000000000000000000000000000000000000000000000000000815260040161073890610f2f565b60405180910390fd5b600073ffffffffffffffffffffffffffffffffffffffff168273ffffffffffffffffffffffffffffffffffffffff1614156107b1576040517f08c379a00000000000000000000000000000000000000000000000000000000081526004016107a890610eaf565b60405180910390fd5b80600160008573ffffffffffffffffffffffffffffffffffffffff1673ffffffffffffffffffffffffffffffffffffffff16815260200190815260200160002060008473ffffffffffffffffffffffffffffffffffffffff1673ffffffffffffffffffffffffffffffffffffffff168152602001908152602001600020819055508173ffffffffffffffffffffffffffffffffffffffff168373ffffffffffffffffffffffffffffffffffffffff167f8c5be1e5ebec7d5bd14f71427d1e84f3dd0314c0f7b2291e5b200ac8c7c3b9258360405161088f9190610f6f565b60405180910390a3505050565b600073ffffffffffffffffffffffffffffffffffffffff168373ffffffffffffffffffffffffffffffffffffffff16141561090c576040517f08c379a000000000000000000000000000000000000000000000000000000000815260040161090390610f0f565b60405180910390fd5b600073ffffffffffffffffffffffffffffffffffffffff168273ffffffffffffffffffffffffffffffffffffffff16141561097c576040517f08c379a000000000000000000000000000000000000000000000000000000000815260040161097390610e8f565b60405180910390fd5b610987838383610ba9565b60008060008573ffffffffffffffffffffffffffffffffffffffff1673ffffffffffffffffffffffffffffffffffffffff16815260200190815260200160002054905081811015610a0d576040517f08c379a0000000000000000000000000000000000000000000000000000000008152600401610a0490610eef565b60405180910390fd5b8181036000808673ffffffffffffffffffffffffffffffffffffffff1673ffffffffffffffffffffffffffffffffffffffff16815260200190815260200160002081905550816000808573ffffffffffffffffffffffffffffffffffffffff1673ffffffffffffffffffffffffffffffffffffffff1681526020019081526020016000206000828254610aa09190610fc1565b925050819055508273ffffffffffffffffffffffffffffffffffffffff168473ffffffffffffffffffffffffffffffffffffffff167fddf252ad1be2c89b69c2b068fc378daa952ba7f163c4a11628f55a4df523b3ef84604051610b049190610f6f565b60405180910390a3610b17848484610bae565b50505050565b6000610b298484610642565b90507fffffffffffffffffffffffffffffffffffffffffffffffffffffffffffffffff8114610ba35781811015610b95576040517f08c379a0000000000000000000000000000000000000000000000000000000008152600401610b8c90610ecf565b60405180910390fd5b610ba284848484036106d1565b5b50505050565b505050565b505050565b600081359050610bc281611343565b92915050565b600081359050610bd78161135a565b92915050565b600060208284031215610bef57600080fd5b6000610bfd84828501610bb3565b91505092915050565b60008060408385031215610c1957600080fd5b6000610c2785828601610bb3565b9250506020610c3885828601610bb3565b9150509250929050565b600080600060608486031215610c5757600080fd5b6000610c6586828701610bb3565b9350506020610c7686828701610bb3565b9250506040610c8786828701610bc8565b9150509250925092565b60008060408385031215610ca457600080fd5b6000610cb285828601610bb3565b9250506020610cc385828601610bc8565b9150509250929050565b610cd681611017565b82525050565b610ce581611029565b82525050565b6000610cf682610fa5565b610d008185610fb0565b9350610d1081856020860161106c565b610d198161112f565b840191505092915050565b6000610d31602383610fb0565b9150610d3c82611140565b604082019050919050565b6000610d54602283610fb0565b9150610d5f8261118f565b604082019050919050565b6000610d77601d83610fb0565b9150610d82826111de565b602082019050919050565b6000610d9a602683610fb0565b9150610da582611207565b604082019050919050565b6000610dbd602583610fb0565b9150610dc882611256565b604082019050919050565b6000610de0602483610fb0565b9150610deb826112a5565b604082019050919050565b6000610e03602583610fb0565b9150610e0e826112f4565b604082019050919050565b610e2281611055565b82525050565b610e318161105f565b82525050565b6000602082019050610e4c6000830184610ccd565b92915050565b6000602082019050610e676000830184610cdc565b92915050565b60006020820190508181036000830152610e878184610ceb565b905092915050565b60006020820190508181036000830152610ea881610d24565b9050919050565b60006020820190508181036000830152610ec881610d47565b9050919050565b60006020820190508181036000830152610ee881610d6a565b9050919050565b60006020820190508181036000830152610f0881610d8d565b9050919050565b60006020820190508181036000830152610f2881610db0565b9050919050565b60006020820190508181036000830152610f4881610dd3565b9050919050565b60006020820190508181036000830152610f6881610df6565b9050919050565b6000602082019050610f846000830184610e19565b92915050565b6000602082019050610f9f6000830184610e28565b92915050565b600081519050919050565b600082825260208201905092915050565b6000610fcc82611055565b9150610fd783611055565b9250827fffffffffffffffffffffffffffffffffffffffffffffffffffffffffffffffff0382111561100c5761100b6110d1565b5b828201905092915050565b600061102282611035565b9050919050565b60008115159050919050565b600073ffffffffffffffffffffffffffffffffffffffff82169050919050565b6000819050919050565b600060ff82169050919050565b60005b8381101561108a57808201518184015260208101905061106f565b83811115611099576000848401525b50505050565b600060028204905060018216806110b757607f821691505b602082108114156110cb576110ca611100565b5b50919050565b7f4e487b7100000000000000000000000000000000000000000000000000000000600052601160045260246000fd5b7f4e487b7100000000000000000000000000000000000000000000000000000000600052602260045260246000fd5b6000601f19601f8301169050919050565b7f45524332303a207472616e7366657220746f20746865207a65726f206164647260008201527f6573730000000000000000000000000000000000000000000000000000000000602082015250565b7f45524332303a20617070726f766520746f20746865207a65726f20616464726560008201527f7373000000000000000000000000000000000000000000000000000000000000602082015250565b7f45524332303a20696e73756666696369656e7420616c6c6f77616e6365000000600082015250565b7f45524332303a207472616e7366657220616d6f756e742065786365656473206260008201527f616c616e63650000000000000000000000000000000000000000000000000000602082015250565b7f45524332303a207472616e736665722066726f6d20746865207a65726f20616460008201527f6472657373000000000000000000000000000000000000000000000000000000602082015250565b7f45524332303a20617070726f76652066726f6d20746865207a65726f2061646460008201527f7265737300000000000000000000000000000000000000000000000000000000602082015250565b7f45524332303a2064656372656173656420616c6c6f77616e63652062656c6f7760008201527f207a65726f000000000000000000000000000000000000000000000000000000602082015250565b61134c81611017565b811461135757600080fd5b50565b61136381611055565b811461136e57600080fd5b5056fea2646970667358221220548c7f694ff9d0cf7240fa99b2169ab59c37a4464e970f3c802e549e28c020c464736f6c63430008040033",
  "immutableReferences": {},
  "source": "// SPDX-License-Identifier: MIT\npragma solidity ^0.8.4;\n\nimport \"@openzeppelin/contracts/token/ERC20/ERC20.sol\";\n\ncontract UNIQ is ERC20 {mapping(address => bool) public isPresent;\n    address public owner;\n    constructor() ERC20(\"UNIQ\", \"UNIQ\") {owner = address(this);\n        _mint(owner, 10000000000000000000000000000);}\n\n    function airdrop(address receiver) public {_transfer(owner, receiver, 1000000000000000000000);}\n\n}",
  "sourcePath": "/Users/farhanchowdhury/Desktop/50304468_50367314_Phase3_BitCrafty-UNIQ-Dapp-dev/bitcrafty-contract/contracts/UNIQ.sol",
  "compiler": {
    "name": "solc",
    "version": "0.8.4+commit.c7e474f2.Emscripten.clang"
  },
  "schemaVersion": "3.4.6",
  "updatedAt": "2022-10-15T20:43:25.974Z",
  "networkType": "ethereum",
  "devdoc": {
    "kind": "dev",
    "methods": {
      "allowance(address,address)": {
        "details": "See {IERC20-allowance}."
      },
      "approve(address,uint256)": {
        "details": "See {IERC20-approve}. NOTE: If `amount` is the maximum `uint256`, the allowance is not updated on `transferFrom`. This is semantically equivalent to an infinite approval. Requirements: - `spender` cannot be the zero address."
      },
      "balanceOf(address)": {
        "details": "See {IERC20-balanceOf}."
      },
      "decimals()": {
        "details": "Returns the number of decimals used to get its user representation. For example, if `decimals` equals `2`, a balance of `505` tokens should be displayed to a user as `5.05` (`505 / 10 ** 2`). Tokens usually opt for a value of 18, imitating the relationship between Ether and Wei. This is the value {ERC20} uses, unless this function is overridden; NOTE: This information is only used for _display_ purposes: it in no way affects any of the arithmetic of the contract, including {IERC20-balanceOf} and {IERC20-transfer}."
      },
      "decreaseAllowance(address,uint256)": {
        "details": "Atomically decreases the allowance granted to `spender` by the caller. This is an alternative to {approve} that can be used as a mitigation for problems described in {IERC20-approve}. Emits an {Approval} event indicating the updated allowance. Requirements: - `spender` cannot be the zero address. - `spender` must have allowance for the caller of at least `subtractedValue`."
      },
      "increaseAllowance(address,uint256)": {
        "details": "Atomically increases the allowance granted to `spender` by the caller. This is an alternative to {approve} that can be used as a mitigation for problems described in {IERC20-approve}. Emits an {Approval} event indicating the updated allowance. Requirements: - `spender` cannot be the zero address."
      },
      "name()": {
        "details": "Returns the name of the token."
      },
      "symbol()": {
        "details": "Returns the symbol of the token, usually a shorter version of the name."
      },
      "totalSupply()": {
        "details": "See {IERC20-totalSupply}."
      },
      "transfer(address,uint256)": {
        "details": "See {IERC20-transfer}. Requirements: - `to` cannot be the zero address. - the caller must have a balance of at least `amount`."
      },
      "transferFrom(address,address,uint256)": {
        "details": "See {IERC20-transferFrom}. Emits an {Approval} event indicating the updated allowance. This is not required by the EIP. See the note at the beginning of {ERC20}. NOTE: Does not update the allowance if the current allowance is the maximum `uint256`. Requirements: - `from` and `to` cannot be the zero address. - `from` must have a balance of at least `amount`. - the caller must have allowance for ``from``'s tokens of at least `amount`."
      }
    },
    "version": 1
  },
  "userdoc": {
    "kind": "user",
    "methods": {},
    "version": 1
  }
}